:060000000A128A1100291A
:1002000008210313831206181A21861821210329B5
:10021000031783168801890103138316870185015B
:1002200003138316061486140313831287018601B1
:100230008501080006181A29850A0508002287008A
:100240000329861821298503050800228700032930
:100400008A018A140F3982073F3406345B344F3433
:1004100066346D347D3407347F346F3477347C3404
:0804200039345E347934713483
:04400E00C430FF3F7C
:00000001FF
